{
  "contractName": "Lottery",
  "abi": [
    {
      "constant": true,
      "inputs": [],
      "name": "manager",
      "outputs": [
        {
          "name": "",
          "type": "address"
        }
      ],
      "payable": false,
      "stateMutability": "view",
      "type": "function"
    },
    {
      "constant": true,
      "inputs": [
        {
          "name": "",
          "type": "uint256"
        }
      ],
      "name": "players",
      "outputs": [
        {
          "name": "",
          "type": "address"
        }
      ],
      "payable": false,
      "stateMutability": "view",
      "type": "function"
    },
    {
      "inputs": [],
      "payable": false,
      "stateMutability": "nonpayable",
      "type": "constructor"
    },
    {
      "constant": false,
      "inputs": [],
      "name": "enter",
      "outputs": [],
      "payable": true,
      "stateMutability": "payable",
      "type": "function"
    },
    {
      "constant": true,
      "inputs": [],
      "name": "random",
      "outputs": [
        {
          "name": "",
          "type": "uint256"
        }
      ],
      "payable": false,
      "stateMutability": "view",
      "type": "function"
    },
    {
      "constant": false,
      "inputs": [],
      "name": "pickWinner",
      "outputs": [],
      "payable": false,
      "stateMutability": "nonpayable",
      "type": "function"
    },
    {
      "constant": true,
      "inputs": [],
      "name": "getPlayers",
      "outputs": [
        {
          "name": "",
          "type": "address[]"
        }
      ],
      "payable": false,
      "stateMutability": "view",
      "type": "function"
    }
  ],
  "bytecode": "0x608060405234801561001057600080fd5b5060008054600160a060020a031916331790556104a9806100326000396000f3006080604052600436106100775763ffffffff7c0100000000000000000000000000000000000000000000000000000000600035041663481c6a75811461007c5780635d495aea146100ba5780635ec01e4d146100d15780638b5b9ccc146100f8578063e97dcb621461015d578063f71d96cb14610165575b600080fd5b34801561008857600080fd5b5061009161017d565b6040805173ffffffffffffffffffffffffffffffffffffffff9092168252519081900360200190f35b3480156100c657600080fd5b506100cf610199565b005b3480156100dd57600080fd5b506100e6610255565b60408051918252519081900360200190f35b34801561010457600080fd5b5061010d6102c5565b60408051602080825283518183015283519192839290830191858101910280838360005b83811015610149578181015183820152602001610131565b505050509050019250505060405180910390f35b6100cf610334565b34801561017157600080fd5b50610091600435610398565b60005473ffffffffffffffffffffffffffffffffffffffff1681565b6000805473ffffffffffffffffffffffffffffffffffffffff1633146101be57600080fd5b6001546101c9610255565b8115156101d257fe5b0690506001818154811015156101e457fe5b600091825260208220015460405173ffffffffffffffffffffffffffffffffffffffff90911691303180156108fc02929091818181858888f19350505050158015610233573d6000803e3d6000fd5b506040805160008152602081019182905251610251916001916103cd565b5050565b6000444260016040518084815260200183815260200182805480156102b057602002820191906000526020600020905b815473ffffffffffffffffffffffffffffffffffffffff168152600190910190602001808311610285575b50506040519081900390209450505050505b90565b6060600180548060200260200160405190810160405280929190818152602001828054801561032a57602002820191906000526020600020905b815473ffffffffffffffffffffffffffffffffffffffff1681526001909101906020018083116102ff575b5050505050905090565b67016345785d8a0000341161034857600080fd5b6001805480820182556000919091527fb10e2d527612073b26eecdfd717e6a320cf44b4afac2b0732d9fcbe2b7fa0cf601805473ffffffffffffffffffffffffffffffffffffffff191633179055565b60018054829081106103a657fe5b60009182526020909120015473ffffffffffffffffffffffffffffffffffffffff16905081565b82805482825590600052602060002090810192821561043c579160200282015b8281111561043c578251825473ffffffffffffffffffffffffffffffffffffffff191673ffffffffffffffffffffffffffffffffffffffff9091161782556020909201916001909101906103ed565b5061044892915061044c565b5090565b6102c291905b8082111561044857805473ffffffffffffffffffffffffffffffffffffffff191681556001016104525600a165627a7a72305820bca6e10842832360af3eb20ffd1fd4179cc85d7012040a967f9ecb082acdf4ba0029",
  "source": "pragma solidity ^0.4.24;\n\ncontract Lottery {\n    address public manager;\n    address[] public players;\n\n    constructor() public {\n        manager = msg.sender;\n    }\n\n    modifier restricted() {\n        require(msg.sender == manager);\n        _;\n    }\n\n    function enter() public payable {\n        require(msg.value > 0.1 ether);\n        players.push(msg.sender);\n    }\n\n    function random() public view returns (uint) {\n        return uint(keccak256(block.difficulty, now, players));\n    }\n\n    function pickWinner() public restricted {\n        uint index = random() % players.length;\n        players[index].transfer(this.balance);\n        players = new address[](0);\n    }\n\n    function getPlayers() public view returns (address[]) {\n        return players;\n    }\n}\n",
  "sourcePath": "/Users/courtneypowerstoneman/Documents/Luke2/ConsensysDeveloperProgram/CSI-Dapp-Template-master/contracts/Lottery.sol",
  "compiler": {
    "name": "solc",
    "version": "0.4.24+commit.e67f0147.Emscripten.clang"
  },
  "schemaVersion": "2.0.1",
  "updatedAt": "2018-08-14T00:00:46.743Z"
}